{
  "contractName": "HelloWorld",
  "abi": [
    {
      "constant": true,
      "inputs": [],
      "name": "print",
      "outputs": [
        {
          "internalType": "string",
          "name": "",
          "type": "string"
        }
      ],
      "payable": false,
      "stateMutability": "pure",
      "type": "function"
    }
  ],
  "bytecode": "0x608060405234801561001057600080fd5b5061011d806100206000396000f3fe6080604052348015600f57600080fd5b506004361060285760003560e01c806313bdfacd14602d575b600080fd5b603360ab565b6040518080602001828103825283818151815260200191508051906020019080838360005b8381101560715780820151818401526020810190506058565b50505050905090810190601f168015609d5780820380516001836020036101000a031916815260200191505b509250505060405180910390f35b60606040518060400160405280601281526020017f48656c6c6f20576f726c6420205465737421000000000000000000000000000081525090509056fea265627a7a7231582005a11f2a62a4c5e3ae3074f5bd8b887a729b5723d4b029e53e40f3c006db7e6764736f6c63430005100032",
  "source": "pragma solidity 0.5.16;\n\ncontract HelloWorld {\n    function print() public pure returns(string memory){\n        return  \"Hello World  Test!\";\n    }\n}",
  "sourcePath": "/Users/harshkasyap/Desktop/Experiments/ethApp/contracts/HelloWorld.sol",
  "compiler": {
    "name": "solc",
    "version": "0.5.16+commit.9c3226ce.Emscripten.clang"
  },
  "schemaVersion": "3.3.3",
  "updatedAt": "2021-02-02T12:42:36.427Z",
  "devdoc": {
    "methods": {}
  },
  "userdoc": {
    "methods": {}
  }
}